{
  "contractName": "ProductContract",
  "abi": [
    {
      "anonymous": false,
      "inputs": [
        {
          "indexed": false,
          "internalType": "uint256",
          "name": "productId",
          "type": "uint256"
        },
        {
          "indexed": true,
          "internalType": "address",
          "name": "manufacturer",
          "type": "address"
        }
      ],
      "name": "ProductAdded",
      "type": "event"
    },
    {
      "constant": true,
      "inputs": [],
      "name": "productCount",
      "outputs": [
        {
          "internalType": "uint256",
          "name": "",
          "type": "uint256"
        }
      ],
      "payable": false,
      "stateMutability": "view",
      "type": "function"
    },
    {
      "constant": true,
      "inputs": [
        {
          "internalType": "uint256",
          "name": "",
          "type": "uint256"
        }
      ],
      "name": "products",
      "outputs": [
        {
          "internalType": "address",
          "name": "manufacturer",
          "type": "address"
        },
        {
          "internalType": "string",
          "name": "productName",
          "type": "string"
        },
        {
          "internalType": "string",
          "name": "productBrand",
          "type": "string"
        },
        {
          "internalType": "string",
          "name": "productCode",
          "type": "string"
        },
        {
          "internalType": "string",
          "name": "batchNumber",
          "type": "string"
        },
        {
          "internalType": "string",
          "name": "manufacturingDate",
          "type": "string"
        },
        {
          "internalType": "string",
          "name": "expiryDate",
          "type": "string"
        }
      ],
      "payable": false,
      "stateMutability": "view",
      "type": "function"
    },
    {
      "constant": false,
      "inputs": [
        {
          "internalType": "string",
          "name": "productName",
          "type": "string"
        },
        {
          "internalType": "string",
          "name": "productBrand",
          "type": "string"
        },
        {
          "internalType": "string",
          "name": "productCode",
          "type": "string"
        },
        {
          "internalType": "string",
          "name": "batchNumber",
          "type": "string"
        },
        {
          "internalType": "string",
          "name": "manufacturingDate",
          "type": "string"
        },
        {
          "internalType": "string",
          "name": "expiryDate",
          "type": "string"
        }
      ],
      "name": "addProduct",
      "outputs": [],
      "payable": false,
      "stateMutability": "nonpayable",
      "type": "function"
    }
  ],
  "bytecode": "0x6080604052600060015534801561001557600080fd5b50610bf1806100256000396000f3fe608060405234801561001057600080fd5b50600436106100415760003560e01c80637acc0b2014610046578063b56559b2146102f2578063e0f6ef8714610631575b600080fd5b6100636004803603602081101561005c57600080fd5b503561064b565b60405180886001600160a01b03166001600160a01b0316815260200180602001806020018060200180602001806020018060200187810387528d818151815260200191508051906020019080838360005b838110156100cc5781810151838201526020016100b4565b50505050905090810190601f1680156100f95780820380516001836020036101000a031916815260200191505b5087810386528c5181528c516020918201918e019080838360005b8381101561012c578181015183820152602001610114565b50505050905090810190601f1680156101595780820380516001836020036101000a031916815260200191505b5087810385528b5181528b516020918201918d019080838360005b8381101561018c578181015183820152602001610174565b50505050905090810190601f1680156101b95780820380516001836020036101000a031916815260200191505b5087810384528a5181528a516020918201918c019080838360005b838110156101ec5781810151838201526020016101d4565b50505050905090810190601f1680156102195780820380516001836020036101000a031916815260200191505b5087810383528951815289516020918201918b019080838360005b8381101561024c578181015183820152602001610234565b50505050905090810190601f1680156102795780820380516001836020036101000a031916815260200191505b5087810382528851815288516020918201918a019080838360005b838110156102ac578181015183820152602001610294565b50505050905090810190601f1680156102d95780820380516001836020036101000a031916815260200191505b509d505050505050505050505050505060405180910390f35b61062f600480360360c081101561030857600080fd5b810190602081018135600160201b81111561032257600080fd5b82018360208201111561033457600080fd5b803590602001918460018302840111600160201b8311171561035557600080fd5b91908080601f0160208091040260200160405190810160405280939291908181526020018383808284376000920191909152509295949360208101935035915050600160201b8111156103a757600080fd5b8201836020820111156103b957600080fd5b803590602001918460018302840111600160201b831117156103da57600080fd5b91908080601f0160208091040260200160405190810160405280939291908181526020018383808284376000920191909152509295949360208101935035915050600160201b81111561042c57600080fd5b82018360208201111561043e57600080fd5b803590602001918460018302840111600160201b8311171561045f57600080fd5b91908080601f0160208091040260200160405190810160405280939291908181526020018383808284376000920191909152509295949360208101935035915050600160201b8111156104b157600080fd5b8201836020820111156104c357600080fd5b803590602001918460018302840111600160201b831117156104e457600080fd5b91908080601f0160208091040260200160405190810160405280939291908181526020018383808284376000920191909152509295949360208101935035915050600160201b81111561053657600080fd5b82018360208201111561054857600080fd5b803590602001918460018302840111600160201b8311171561056957600080fd5b91908080601f0160208091040260200160405190810160405280939291908181526020018383808284376000920191909152509295949360208101935035915050600160201b8111156105bb57600080fd5b8201836020820111156105cd57600080fd5b803590602001918460018302840111600160201b831117156105ee57600080fd5b91908080601f0160208091040260200160405190810160405280939291908181526020018383808284376000920191909152509295506109ce945050505050565b005b610639610b1b565b60408051918252519081900360200190f35b600060208181529181526040908190208054600180830180548551600261010094831615949094026000190190911692909204601f81018790048702830187019095528482526001600160a01b0390921694929390928301828280156106f25780601f106106c7576101008083540402835291602001916106f2565b820191906000526020600020905b8154815290600101906020018083116106d557829003601f168201915b50505060028085018054604080516020601f60001961010060018716150201909416959095049283018590048502810185019091528181529596959450909250908301828280156107845780601f1061075957610100808354040283529160200191610784565b820191906000526020600020905b81548152906001019060200180831161076757829003601f168201915b5050505060038301805460408051602060026001851615610100026000190190941693909304601f81018490048402820184019092528181529495949350908301828280156108145780601f106107e957610100808354040283529160200191610814565b820191906000526020600020905b8154815290600101906020018083116107f757829003601f168201915b5050505060048301805460408051602060026001851615610100026000190190941693909304601f81018490048402820184019092528181529495949350908301828280156108a45780601f10610879576101008083540402835291602001916108a4565b820191906000526020600020905b81548152906001019060200180831161088757829003601f168201915b5050505060058301805460408051602060026001851615610100026000190190941693909304601f81018490048402820184019092528181529495949350908301828280156109345780601f1061090957610100808354040283529160200191610934565b820191906000526020600020905b81548152906001019060200180831161091757829003601f168201915b5050505060068301805460408051602060026001851615610100026000190190941693909304601f81018490048402820184019092528181529495949350908301828280156109c45780601f10610999576101008083540402835291602001916109c4565b820191906000526020600020905b8154815290600101906020018083116109a757829003601f168201915b5050505050905087565b6001805481018082556040805160e08101825233815260208082018b81528284018b9052606083018a90526080830189905260a0830188905260c08301879052600094855284825292909320815181546001600160a01b0319166001600160a01b039091161781559151805191949293610a4d93850192910190610b21565b5060408201518051610a69916002840191602090910190610b21565b5060608201518051610a85916003840191602090910190610b21565b5060808201518051610aa1916004840191602090910190610b21565b5060a08201518051610abd916005840191602090910190610b21565b5060c08201518051610ad9916006840191602090910190610b21565b505060015460408051918252513392507f61394ce83505fd053362beef6b6476dc5cdd4e4dd515dd026ee6ed7f4d473cd09181900360200190a2505050505050565b60015481565b828054600181600116156101000203166002900490600052602060002090601f016020900481019282601f10610b6257805160ff1916838001178555610b8f565b82800160010185558215610b8f579182015b82811115610b8f578251825591602001919060010190610b74565b50610b9b929150610b9f565b5090565b610bb991905b80821115610b9b5760008155600101610ba5565b9056fea265627a7a72315820d8b3d0366171692a2b9f377fc0240d5e1a6c5e188c81441e1fecbc697751f5e764736f6c63430005100032",
  "source": "// SPDX-License-Identifier: MIT\npragma solidity >=0.4.22 <0.9.0;\n\ncontract ProductContract {\n    struct Product {\n        address manufacturer;\n        string productName;\n        string productBrand;\n        string productCode;\n        string batchNumber;\n        string manufacturingDate;\n        string expiryDate;\n    }\n\n    mapping(uint256 => Product) public products;\n    uint256 public productCount = 0;\n\n    event ProductAdded(uint256 productId, address indexed manufacturer);\n\n    function addProduct(\n        string memory productName,\n        string memory productBrand,\n        string memory productCode,\n        string memory batchNumber,\n        string memory manufacturingDate,\n        string memory expiryDate\n    ) public {\n        productCount++;\n        products[productCount] = Product({\n            manufacturer: msg.sender,\n            productName: productName,\n            productBrand: productBrand,\n            productCode: productCode,\n            batchNumber: batchNumber,\n            manufacturingDate: manufacturingDate,\n            expiryDate: expiryDate\n        });\n\n        emit ProductAdded(productCount, msg.sender);\n    }\n}\n",
  "sourcePath": "C:\\Users\\jpran\\Desktop\\bk p3\\contracts\\ProductContract.sol",
  "compiler": {
    "name": "solc",
    "version": "0.5.16+commit.9c3226ce.Emscripten.clang"
  },
  "schemaVersion": "3.4.16",
  "updatedAt": "2023-12-13T17:48:50.562Z",
  "networkType": "ethereum",
  "devdoc": {
    "methods": {}
  },
  "userdoc": {
    "methods": {}
  }
}